:020000040800F2
:10000000D84200200D020008E52F0008C52900088D
:1000100000000000000000000000000000000000E0
:10002000000000000000000000000000AD300008EB
:1000300000000000000000009301000819330008D0
:100040001F020008000000001F0200081F02000835
:100050001F0200081F0200081F0200081F020008FC
:1000600000000000890800081F0200081F020008A5
:100070001F0200081F0200081F0200080000000005
:100080001F0200081F0200081F0200081F020008CC
:100090001F020008BD3300081F0200081F020008ED
:1000A0001F0200081F0200081F020008A93F0008E5
:1000B0001F020008B93F000800F002F800F03EF807
:1000C0000CA030C8083824182D18A246671EAB466D
:1000D00054465D46AC4201D100F030F87E460F3EFA
:1000E0000FCCB6460126334200D0FB1AA246AB46DF
:1000F000334318476469000084690000103A02D352
:1001000078C878C1FAD8520701D330C830C101D5B8
:1001100004680C60704700000023002400250026BE
:10012000103A01D378C1FBD8520700D330C100D5B3
:100130000B6070471FB51FBD10B510BD00F0E0FA91
:100140001146FFF7F7FF04F0A5F900F0F8FA03B441
:10015000FFF7F2FF03BC00F0A7FA0000084B196894
:100160000868203080F30988022080F31488BFF3E8
:100170006F8F3FBCAE4608BC04BC62B61847000097
:1001800028000020EFF3108072B6704780F31088CB
:100190007047EFF309800E4B1A6820381060F0C0EA
:1001A00044464D4656465F46F0C008B572B605F067
:1001B00029FD62B60CBC116808681030F0C8A04672
:1001C000A946B246BB4680F309882038F0C81847D4
:1001D0002800002070B505460C46164602E00FCCFC
:1001E0000FC5103E102EFAD2082E02D303CC03C541
:1001F000083E042E07D301CC01C5361F03E0217849
:100200002970641C6D1C761EF9D270BD07488047AA
:1002100007480047FEE7FEE7FEE7FEE7FEE7FEE7EA
:1002200004480549054A064B70470000BB330008E7
:10023000B9000008D8360020D8420020D83A002063
:10024000D83A0020FEB5054610460C46184373D038
:10025000AE468C460020AD1A01469C4167D36646E7
:10026000002701243D46B61A9D4102D313463A4663
:100270002124654676462F04360C3E432D0CB61AD3
:100280009D4104D3150C1B042B4312041034654606
:1002900076462F06360A3E432D0AB61A9D4104D3F0
:1002A000150E1B022B4312020834654676462F07B3
:1002B00036093E432D09B61A9D4104D3150F1B0183
:1002C0002B431201241D65467646AF07B6083E4310
:1002D000AD08B61A9D4104D3950F9B002B439200A5
:1002E000A41C65467646EF0776083E436D08B61AAD
:1002F0009D411AD392185B41641C16E000187646A3
:1003000065464941B71A9D410191009009D3604665
:10031000B11A98418E468446009801990025401CE8
:100320006941DD0752082A435B08641EE6D5724620
:10033000634603B0F0BDFFE700200146C046C0465B
:100340002A462346F5E710B5002000F0B3F9FFF781
:10035000F3FE012000F0A8F910BD0000034670B5BF
:1003600002460B439B070FD10E4CE60100E008C28A
:1003700008C91D1B9D433542F9D0D9B21170521CDA
:1003800000290DD01B0AF8E70B78491C1370521C8A
:10039000002B05D00B78491C1370521C002BF3D195
:1003A00070BD00000101010130B5441C03E001787B
:1003B000401C00290DD08107F9D10B4BDD0104C889
:1003C000D11A91432940FAD0001B0A0603D0C01E5F
:1003D00030BD001B30BD0A0401D0801E30BD0902B3
:1003E000FCD0401E30BD000001010101F8B5042A17
:1003F0002CD3830712D00B78491C0370401C521E6B
:1004000083070BD00B78491C0370401C521E8307D6
:1004100004D00B78491C0370401C521E8B079B0FA5
:1004200005D0C91ADF002023DE1B08C90AE0FFF748
:10043000D1FEF8BD1D4608C9FD401C46B4402C4302
:1004400010C0121F042AF5D2F308C91A521EF0D4A4
:100450000B78491C0370401C521EEAD40B78491CCF
:100460000370401C012AE4D409780170F8BDD2B2AF
:1004700010B513029A1813049A1800F00EF810BD64
:1004800001E004C0091F0429FBD28B0701D50280BB
:10049000801CC90700D00270704700290BD0C30729
:1004A00002D00270401C491E022904D3830702D5E2
:1004B0000280801C891EE3E70022EEE70022DFE7CE
:1004C000024670B50A4392072AD11E4DEE0104C8B8
:1004D00008C9541B9443344017D0D0B2D9B2401A43
:1004E0002106014310D190B299B2401A2104014370
:1004F0000AD110021902000A090A401A2102014316
:1005000002D1100E190E401A70BD9A42DFD010BAF7
:1005100019BA884201D9012070BD0020C04370BDC6
:1005200002780B78401C491C002A09D09A4207D156
:1005300002780B78401C491C002A01D09A42EFD067
:10054000D01A70BD01010101002203098B422CD396
:10055000030A8B4211D300239C464EE003460B4313
:100560003CD4002243088B4231D303098B421CD375
:10057000030A8B4201D394463FE0C3098B4201D367
:10058000CB01C01A524183098B4201D38B01C01A9F
:10059000524143098B4201D34B01C01A5241030916
:1005A0008B4201D30B01C01A5241C3088B4201D3C5
:1005B000CB00C01A524183088B4201D38B00C01A72
:1005C000524143088B4201D34B00C01A5241411A99
:1005D00000D201465241104670475DE0CA0F00D07C
:1005E0004942031000D34042534000229C46030975
:1005F0008B422DD3030A8B4212D3FC22890112BAFB
:10060000030A8B420CD3890192118B4208D38901D2
:1006100092118B4204D389013AD0921100E08909EA
:10062000C3098B4201D3CB01C01A524183098B42CB
:1006300001D38B01C01A524143098B4201D34B01B4
:10064000C01A524103098B4201D30B01C01A524117
:10065000C3088B4201D3CB00C01A524183088B429E
:1006600001D38B00C01A5241D9D243088B4201D327
:100670004B00C01A5241411A00D201466346524112
:100680005B10104601D34042002B00D54942704711
:1006900063465B1000D3404201B50020C046C0460F
:1006A00002BD70477047704701491820ABBEFEE796
:1006B0002600020010B500F00BF800F002F810BDA3
:1006C000704710B5002801D0FFF7EEFF10BD000005
:1006D00010B5002102A000F03AF8012010BD000082
:1006E000534947414252543A2041626E6F726D61E4
:1006F0006C207465726D696E6174696F6E000000C4
:10070000754600F045F8AE46050069465346C008F8
:10071000C000854618B020B5FFF782FD60BC0027F9
:100720004908B6460026C0C5C0C5C0C5C0C5C0C5BD
:10073000C0C5C0C5C0C5403D49008D46704710B515
:100740000446C046C0462046FFF701FD10BD70B507
:1007500005460C460A2000E06D1C00F012F8002D42
:1007600006D028780028F7D102E0641C00F009F8D0
:10077000002C02D020780028F7D10A2000F001F8E0
:1007800070BD08B5694608700320ABBE08BD000007
:1007900000487047783600201FB52BA000680390F2
:1007A000012005F083FA294C60600A2005F02AF93F
:1007B0000026F64364253146606805F0BFFC03233C
:1007C00003AA70212248009500F0F6FD002836D1DA
:1007D000642005F017F9072301AA70211C48009531
:1007E00000F062FD00282AD100231A4619466068ED
:1007F00005F0DBFA062101A800F02CF86946897A99
:1008000081421CD16A46507991790003090108435D
:10081000D1790A0910436A46127A0907090B1202B4
:1008200011436A46527A11437D22D2005043000D93
:10083000206150004143080DFF38F538E060142076
:1008400005F0E0F8B7E70000AC330000000000203E
:100850006C01002070B50546FF20002231240FE016
:10086000AB5C58400823060602D54000604000E01B
:1008700040005B1E1B06C0B21B0EF4D1521CD2B24C
:100880008A42EDD370BD000010B5024800F071FA45
:1008900010BD00001803002010B50446006805498B
:1008A00040181421FFF750FE800020640248E063E6
:1008B00010BD0000F8FFFDBF0000024030B5056C20
:1008C0000124AC40C56B6C60046863604368102B06
:1008D000036803D099600068C26030BD9A60006808
:1008E000C16030BD72B6FEE710B5054C21680968DD
:1008F000FFF7E6FD002801D0002010BD206810BDE4
:10090000B0000020F8B5054604462035287D0026B5
:10091000012808D001202875206881688907890F7F
:10092000012908D101E00220F8BD0168C9073CD1C6
:10093000C168090439D4A16BFF220132914302221C
:100940001143A163C1688907890F0091C1688908B3
:100950008900C1602068816892071143816000F0BE
:10096000F9FB074612E000F0F5FBC01B02280DD989
:1009700020688068002809DAA06B022188431021D2
:100980000843A063002028750120F8BD2068806816
:100990000028E8DB2068C168009A1143C160A06BA1
:1009A00080088000401CA06304E0A06B2021084365
:1009B000A0630126002028753046F8BDF8B5002553
:1009C000044620340095227D012A39D00122227567
:1009D00003689E68760767D4384F4E68BE424DD094
:1009E0009E6A0F78BA4016439E620123C26A1B07B3
:1009F0009A421FD0012A1DD0022A1BD0032A19D0E7
:100A0000042A17D0052A15D0062A13D0072A11D098
:100A100002688B6856697607760FB3420AD053692D
:100A2000DB08DB005361006842690B7A5B075B0FF0
:100A30001A4342610A68102A04D0112A02D038E011
:100A40000220F8BD1E488368102A07D001229205B3
:100A5000134383600868102803D02AE00122D205DE
:100A6000F6E7194817490068FFF76EFD0A21484369
:100A700000E0401E00900028FBD11AE0986A0E7832
:100A8000B240904398620968102901D0112910D111
:100A90000B488268102904D0012189058A438260AD
:100AA00007E00121C905F9E7816B20221143816329
:100AB0000125002020752846F8BD00000110000027
:100AC0000027014040420F0024000020F8B5002616
:100AD0000446002805D0A06B25462035002802D00A
:100AE00007E00120F8BD0020E0632875204600F0F3
:100AF000A9F8A06B1022C006002870DB206881686E
:100B000049076CD4A16B1301994302231943A163D4
:100B100081688907890F012905D10168C9070FD1AB
:100B2000C16809040CD4C16818239943A368194308
:100B3000C1602068016963688900890819430161FF
:100B40002068C1683D4B1940C160207E617E8003F2
:100B5000C9030843A17E4B031843A36A012B02D0AB
:100B600001231B0300E000231843E36818432369B3
:100B7000022B09D0002318432B79E57E5B00184334
:100B80000123012D02D00AE00423F4E7002927D035
:100B9000A16B20252943A163E16B1943E163E1695E
:100BA0000D46FF3DC23D02D0256A29430843216816
:100BB000CD680543CD600125E16A2D07A94213D018
:100BC000012911D002290FD003290DD004290BD0FF
:100BD000052909D0062907D0072905D010E028E00B
:100BE000012109040843DAE721684D69ED08ED00A9
:100BF0004D6121684D69A78D7F077F0F3D434D6192
:100C00002168C9680E4D2940814207D10020E06368
:100C1000A06B80088000401CA06308E0A06B02214C
:100C200088431043A063E06B1843E063012630461D
:100C3000F8BDA06B1043A063F8E700001902FEFFA7
:100C4000E7FF3F8310B586B0044614216846FFF7DE
:100C500035FC10492068884219D10F488269411536
:100C60000A43826182690A400592426909020A4385
:100C700042614069084005900620009003200190E1
:100C80000020029009206946C00600F08BF906B0EA
:100C900010BD0000002401400010024030B50146A4
:100CA00020314B780022022B04D0042383630A7086
:100CB000012030BD03681C680E25AC431C6003682E
:100CC0001C68640864001C600123056C1C46C06B32
:100CD000AC4044604B700A70002030BD70B50024F9
:100CE000014620314A78022A03D00421816301247D
:100CF00016E0026813680E25AB43136002681368A0
:100D00005B085B0013600122056C1346AB40C56BAA
:100D10006B604A7000220A70416B002900D088473E
:100D2000204670BD70B504001FD0206801684908D6
:100D30004900016020680025056020684560206842
:100D400085602068C5602046FFF7A6FD216C012064
:100D50008840E16B4860A562E56225636563A56331
:100D6000203465702570002070BD012070BD806B3F
:100D70007047F0B4C16B0D6801680C680422066C02
:100D80001346B3402B420DD063070BD50B689B066F
:100D900002D40B6893430B60016C8A40C16B4A60BC
:100DA000C16A19E00227B74002462F4001232032D2
:100DB000002F15D0A70713D50C68A40604D40C681F
:100DC0000A25AC430C605370036C02219940C36B3D
:100DD000596000211170816A002916D0F0BC0847C3
:100DE0000827B7402F4210D024070ED50C680E25D7
:100DF000AC430C60046C1946A140C46B6160836312
:100E0000537000211170016BE6E7F0BC70470000E1
:100E100070B5040021D002212046203005464170E3
:100E2000226811680E48A36801406068266918436B
:100E3000E3683343184363691843A3691843E369BC
:100E40001843084310602046FFF726FD0021A163E8
:100E5000012068702970084670BD012070BD000037
:100E60000FC0FFFFF8B504468C46203001780025FE
:100E7000012909D00126067041780027012905D0F3
:100E8000077002252846F8BD0220F8BD02214170F6
:100E9000A76320680168490849000160614620464F
:100EA000FFF70CFDE06A00282068016802D00E22DE
:100EB000114306E00A221143016020680168042200
:100EC000914301602068016831430160DAE7000066
:100ED000F0B5002258E0012393401C460C4052D04C
:100EE00096082B4DB6007519AF68AC4695072E0FC6
:100EF0000F25B540AE463D400927FF06B84201D157
:100F000000270FE0234FB84201D101270AE0224F0A
:100F1000B84201D1022705E0204FB84201D1032792
:100F200000E00527B740AF4212D11D4D2E68A64301
:100F30002E606E68A6436E60EE68A643EE60AE68F3
:100F4000A643AE606546AD687446A5436446A56099
:100F5000056856000324B440A5430560D508AD00DC
:100F60002D182E6AAC465507EF0E0F25BD40AE4337
:100F700065462E62C568A543C56045689D434560CA
:100F80008368A3438360521C0B46D340A3D1F0BDBA
:100F9000000001400004004800080048000C004820
:100FA00000040140F8B5002303240125BAE02E46D1
:100FB0009E40B44632407CD00E79B607B60F012E63
:100FC00001D0022E17D186682746B6465E00B7408C
:100FD00000967646BE43B646CF68009EB74076463A
:100FE0003743876046686746BE430F79FF06FF0FA9
:100FF0009F40374347600E79F643B6070ED0C66868
:101000002746B4465E00B646B7406646BE43B44681
:101010008F687646B74066463743C7600E79B60795
:10102000B60F022E14D1DE08B60036180096366AC6
:101030005F07B446FE0E0F27B646B7406646BE436E
:10104000B4460F697646B74066463743009E37621E
:1010500006682746B4465E00B646B7406646BE43BD
:101060000F79B446BF07BF0F7646B7406646374391
:1010700007604E68B603B60F53D02D4FBE692E439E
:10108000BE61BE699F08F607F60F2A4EBF00BE1963
:101090000096B6680F27B4469E07360FB646B7408F
:1010A0006646BE430927FF06B446B84202D1002770
:1010B00010E036E0204FB84201D101270AE01F4F6F
:1010C000B84201D1022705E01D4FB84201D10327E4
:1010D00000E005277646B74066463743009EB76076
:1010E000184EB6684F689643FF0200D51643154F59
:1010F000BE60FE684F689643BF0200D51643114F8D
:10110000FE607E684F689643BF0300D516430D4FBF
:101110007E603E684F689643FF0300D51643094A38
:1011200016605B1C0A681646DE4000D03FE7F8BD3B
:101130000010024000000140000400480008004880
:10114000000C004800040140002A01D08161704772
:1011500081627047014880687047000018000020D5
:1011600070B5024640325378202B1CD11378012BE6
:1011700019D00123137024245470046825689D43FA
:101180002560046825681E03B5432560046825684A
:101190000D432560006801681943016020205070EC
:1011A0000020107070BD022070BD70B50246403244
:1011B0005378202B1BD11378012B18D001241470E5
:1011C0002423537003681D68A5431D6005682B68C0
:1011D0000F263602B34309021943296000680168EB
:1011E00021430160202050700020107070BD02204B
:1011F00070BD000070B5040006D025464035687803
:101200000026002802D005E0012070BD2E70204687
:1012100000F05AF9242068702068016849084900E4
:1012200001600F2160680906884321680861216810
:101230008A680120C00382438A60E1680129A168AD
:1012400008D021229202114322689160E1680229AC
:1012500002D005E00143F7E701212268C90251608D
:1012600021684A680F4B1A434A602168CA68824362
:10127000CA60616920690843A169090208432168BD
:10128000C860216AE0690843216808602068016835
:101290000122114301606664202068702663AE70ED
:1012A000002070BD00800002FFB5054604464035B1
:1012B000687881B0202878D12878012875D001205D
:1012C0002870FFF747FF0746012200901923D1033A
:1012D000204601F027FC00283CD122206870102015
:1012E000A87000266664039860620498608566634F
:1012F000618D2F48FF2903D9FF22228500903BE012
:10130000618D218500903DE02046029901F0F4FBBB
:1013100016E001F039FC00281CD12068406A616A9F
:101320000870606A401C6062208D401E81B2218579
:10133000608D401E6085608D002801D000290CD092
:10134000608D0A9900283A462046E2D101F06AFCF5
:1013500000281CD0012005B0F0BD0097002280219C
:1013600020460A9B01F0DEFB0028F3D1608DFF28A8
:1013700005D9FF222285009601231B06C4E7608D54
:1013800020850096208D0123C2B25B06BCE7216850
:101390002020C86121684A68064B1A404A6068707C
:1013A000AE702E700020D6E7FFE70220D3E70000E2
:1013B0000024008000E800FEFFB5054604464035E5
:1013C000687881B0202878D12878012875D001204C
:1013D0002870FFF7BFFE0746012200901923D103B2
:1013E000204601F09FFB00283CD12120687010208E
:1013F000A87000266664039860620498608566633E
:10140000618D2F48FF2903D9FF22228500903BE000
:10141000618D218500903DE02046029901F06CFB32
:1014200016E001F02AFC00281CD1606A21680078CF
:101430008862606A401C6062608D401E6085208DFD
:10144000401E80B22085618D002901D000280CD07B
:10145000608D0A9900283A462046E2D101F0E2FB6D
:1014600000281CD0012005B0F0BD0097002280218B
:1014700020460A9B01F056FB0028F3D1608DFF281F
:1014800005D9FF222285009601231B06C4E7608D43
:1014900020850096208D0123C2B25B06BCE721683F
:1014A0002020C86121684A68064B1A404A6068706B
:1014B000AE702E700020D6E7FFE70220D3E70000D1
:1014C0000020008000E800FE10B586B0044614211C
:1014D0006846FEF7F3FF1249206888421ED1114C7E
:1014E00061690120800401436161616901400591E6
:1014F000C020009012200190002002900320039051
:101500000120049069460848FFF74CFDE16901207D
:1015100040050143E161E1690140059106B010BD5C
:101520000054004000100240000400480248816856
:1015300002788918816070471800002010B50648AD
:101540000168102211430160032000F007F800F049
:1015500053F8002010BD00000020024030B50546C1
:101560001F4887B08269012149040A43826180696A
:101570000840009005A901A800F06EF90498002821
:1015800015D000F085F940001649FEF7DDFF411E39
:101590001648154A0260164AC26041600021016186
:1015A0008160816100F0CEFB040003D015E000F003
:1015B0006FF9E9E70D4800F0FBFB04000DD11520A1
:1015C00000F042F8042D07D200222946152000F031
:1015D00047F80848056000E00124204607B030BD08
:1015E0000010024040420F00004401405C03002014
:1015F000E70300001C00002008B50A4881690122A9
:1016000011438161816911400091C26901040A435B
:10161000C261C0690022084003210090481F00F009
:101620001FF808BD00100240002809DBC106C90EE2
:101630000120884003490860BFF34F8FBFF36F8FCD
:101640007047000080E100E0002805DBC106C90EFC
:1016500001208840014908607047000000E100E077
:1016600010B502F0E1FC10BDF8B505460068354C38
:10167000C00352D5E0690026C00007D4E169200408
:101680000143E161E1690140012600912E480168B2
:10169000C90510D40168821511430160FFF75AFD96
:1016A000074604E0FFF756FDC01B642824D82648EF
:1016B0000068C005F6D5206A03273F02384020D0D5
:1016C0006968394081421CD0206A226AB8430121EE
:1016D00009040A432262226A8A4322622062C00706
:1016E0000FD0FFF737FD009008E0FFF733FD0099BA
:1016F000411A1648814201D90320F8BD206A8007AB
:10170000F3D5206A6968B84308432062002E04D0EC
:10171000E169012000078143E1612878C00705D015
:10172000206BA96880088000084320632878800621
:1017300005D5206B10218843E96808432063002009
:10174000F8BD000000100240007000408813000047
:10175000F8B50F46060059D03A4D2868C007C00FAB
:10176000B84209D2286840084000384328602868F9
:10177000C007C00FB84249D13068334C81070CD53F
:10178000400704D56068072109020843606060686B
:10179000F0218843B168084360603078C00726D0E4
:1017A000706801280ED0216802280ED08907002910
:1017B0002CDA61688908890001436160FFF7CAFC7F
:1017C00000900DE021688903F1E78901EFE7FFF759
:1017D000C1FC0099411A1D48814201D90320F8BD7E
:1017E00060680C210840716889008842EFD1286840
:1017F000C007C00FB8420BD92868400840003843E2
:1018000028602868C007C00FB84201D00120F8BD89
:101810003078400706D56068072109028843F168DF
:101820000843606000F044F86168094A0906090F3E
:10183000515CC840074908600320FFF78FFE002075
:10184000F8BD000000200240001002408813000094
:101850003C6700082400002010B5072202600A4AF5
:1018600053689B079B0F43605368F02423408360B9
:10187000526807231B021A40C26004480068C00770
:10188000C00F086010BD00000010024000200240A0
:101890000448054900684968044A4905490F515CF4
:1018A000C840704724000020001002404C67000828
:1018B00010B50F494B680C201A4602400D48042A07
:1018C00014D0082A12D19A020B4C120FA45CC96AD8
:1018D000094A0907090F1032525CD903890F002306
:1018E0001946FEF7AFFC214602F078FB10BD000060
:1018F0000010024000127A001C670008FEB50400C8
:1019000071D02078DC4DC00749D068680007800F8F
:10191000012820D068680007800F022804D1686879
:10192000C003800F022816D0012062680004012A3B
:1019300018D08100002A01D0052A17D02A688243D6
:101940002A60286888432860606800281BD0FFF759
:1019500001FC064613E02868800320D56068002853
:10196000CED01CE0296801432960EDE72A680A43CC
:101970002A60F7E7FFF7EEFB801B642870D8286821
:101980008003F7D50BE0FFF7E5FB064604E0FFF721
:10199000E1FB801B6428F1D828688003F7D4207805
:1019A0000126800700283EDA68680007800F13D000
:1019B00068680007800F022804D16868C003800FA0
:1019C000012809D0E068002828681DD0304328602D
:1019D000FFF7C0FB07460CE0286880070CD5E068DD
:1019E000012800D108E043E1FFF7B4FBC01B022847
:1019F000C4D828688007F7D52868F821884321696A
:101A0000C900084328600EE0400840002860FFF746
:101A1000A1FB074604E0FFF79DFBC01B0228ADD8E1
:101A200028688007F7D42078000722D5E0690028CD
:101A3000686A0ED030436862FFF78CFB074604E00B
:101A4000FFF788FBC01B022898D8686A8007F7D583
:101A50000FE0400840006862FFF77CFB074605E0A6
:101A60009DE0FFF777FBC01B022887D8686A8007D4
:101A7000F7D4207804274007002860DA002001907E
:101A8000E869C00008D4E969B8060143E961E96979
:101A9000014001200091019078480168C90511D4E6
:101AA0000168821511430160FFF754FB009005E0C7
:101AB000FFF750FB0099401A642870D86F480068FF
:101AC000C005F5D5A06801280AD0002801D0052856
:101AD00010D0286A400840002862286AB84301E014
:101AE000286A30432862A068002812D0FFF732FB32
:101AF00000900AE0286A38432862F1E7FFF72AFBE2
:101B00000099411A5E48814249D8286A8007F5D574
:101B10000DE0FFF71FFB009006E0FFF71BFB0099AD
:101B2000411A574881423AD8286A8007F5D401986B
:101B3000002804D0E869012109078843E86120787A
:101B4000C00635D5606901280CD0401D686B23D0D4
:101B500038436863686B400840006863FFF7FAFA2F
:101B6000064622E0686B38436863686B30436863FD
:101B7000FFF7F0FA064604E0FFF7ECFA801B0228B4
:101B80005BD8686B8007F7D5686BF8218843A1693B
:101B9000C900084368630BE0B8436863F4E74CE0AE
:101BA000FFF7D8FA801B022847D8686B8007F7D464
:101BB000206A00285ED069680907890F022942D08F
:101BC000012636060228286805D0B0432860FFF7B2
:101BD000C1FA044633E0B0432860FFF7BBFA07467A
:101BE00004E0FFF7B7FAC01B022826D82868800156
:101BF000F7D4E86AE16A000900010843E862616A13
:101C0000A06A084369687B22D20391430843686055
:101C1000286830432860FFF79DFA044604E0FFF788
:101C200099FA001B022808D828688001F7D521E01E
:101C3000FFF790FA001B022801D90320FEBD286897
:101C40008001F5D416E00128F8D06868E96A03221B
:101C5000D203636A02409A420AD10907E26A090F75
:101C6000914205D10F2189040840A16A884201D020
:101C70000120FEBD0020FEBD0010024000700040AB
:101C8000881300007047704730B5034620331A7F31
:101C9000012A26D001221A770325CA682D02AA43F9
:101CA0008D6800242A430125AD02AA434D680068CF
:101CB0002A430125ED02AA430D682A4301252D037D
:101CC000AA430D692A4301256D03AA434D69C969D9
:101CD0002A430125AD03AA430A4342641C7700202E
:101CE00030BD022030BD0000F0B502462032137F27
:101CF000012B1ED0012515770223537706687468DF
:101D0000B3687027BC430F682743776000680A4CAC
:101D1000A04205D0094CA04202D0094CA04204D1F7
:101D200080244968A34319438160557700201077C8
:101D3000F0BD0220F0BD0000002C01400004004076
:101D40000040014070B5040005D025462035687F6D
:101D5000002802D006E0012070BD00202877204630
:101D600000F014F802206877211D206801F02EFB96
:101D700001204034A071A877E87720706070A070CF
:101D8000E070207160716877002070BD08B5006850
:101D90000549884207D105488269C1140A43826116
:101DA00080690840009008BD002C014000100240EE
:101DB000014620314A7F012A01D0012070470222CA
:101DC0004A770268D36801210B43D3600068094A4F
:101DD000904205D0084A904202D0084A904204D16D
:101DE00082685207520F062A02D002680A43026034
:101DF00000207047002C01400004004000400140DA
:101E0000F8B5054604462035287F0026012817D05E
:101E10000120287702206877226890687727FF23BF
:101E2000B8431B02984390600868502838D00EDCF5
:101E300020284FD006DC00284CD010281ED149E0C5
:101E40000220F8BD302845D0402817D13AE060285C
:101E50002ED0702819D001221203801A0FD0904280
:101E60000CD1CB684A688968206801F000FB2068C3
:101E70008168012292031143816000E00126012064
:101E80006877002028773046F8BDCB684A688968B3
:101E9000206801F0ECFA2168886838438860EEE732
:101EA000CA684968206801F0F1FB5021206806E00B
:101EB000CA684968206801F0FAFB6021206801F0D7
:101EC000E1FADCE7CA684968206801F0DFFB4021DD
:101ED0002068F4E7226801461046F0E7704770B5C5
:101EE0000446006801690025C9438907002915DBFC
:101EF000C168C943890711D4E91E01610120207717
:101F0000206880698007204602D0FFF7E7FF04E0E1
:101F100000F0BEF8204600F049F9257720680169F5
:101F2000C943490717D4C168C943490713D40421D9
:101F3000C943016102202077206880698005800FF5
:101F4000204602D0FFF7CAFF04E000F0A1F82046C7
:101F500000F02CF9257720680169C943090716D4D8
:101F6000C168C943090712D40821C943016104208B
:101F700020772068C0698007204602D0FFF7AEFFB7
:101F800004E000F085F8204600F010F9257720687D
:101F90000169C943C90617D4C168C943C90613D426
:101FA0001021C9430161082020772068C06980059D
:101FB000800F204602D0FFF791FF04E000F068F8A0
:101FC000204600F0F3F8257720680169C943C90766
:101FD00008D1C168C943C90704D1891E01612046DF
:101FE00000F03AF920680169C943090609D4C168BB
:101FF000C943090605D48021C94301612046FFF782
:1020000041FE20680169C943490609D4C168C94332
:10201000490605D44021C9430161204600F026F954
:1020200020680169C943890609D4C168C943890682
:1020300005D42021C94301612046FFF724FE70BD6D
:1020400010B586B0044614216846FEF737FA0E49EB
:102050002068884215D10D484269012149040A438C
:1020600042614069084005908811009000200221DB
:10207000029003900191049109206946C006FEF781
:1020800091FF06B010BD0000002C0140001002407E
:102090007047F8B5064604462036307F00270D46C7
:1020A00001280ED001203077002A0CD0042A1BD042
:1020B000082A2FD00C2A3ED001270020307738463E
:1020C000F8BD0220F8BD206801F0E4F920688169BC
:1020D0000822114381612068826904218A43826158
:1020E000206881692A6912E0206801F017FA2068E7
:1020F00082690121C9020A43826120688169012243
:10210000920291438161206881692A691202114318
:102110008161D2E7206801F041FA2068C169082294
:102120001143C1612068C26904218A43C2612068E9
:10213000C1692A6912E0206801F072FA2068C16959
:102140000122D2021143C1612068C26901218902C2
:102150008A43C2612068C1692A6912021143C161C0
:10216000ABE770B5040005D025462035687F002810
:1021700002D006E0012070BD00202877204600F044
:1021800014F802206877211D206801F01FF9012052
:102190004034A071A877E87720706070A070E0707C
:1021A000207160716877002070BD70477047000033
:1021B00030B504460222203000290AD004290DD06F
:1021C0002046403008290ED04378012B10D0012042
:1021D00030BD837F012BFAD182770AE0C37F012BC8
:1021E000F5D1C27705E00378012BF0D1027000E051
:1021F00042700122206801F02DF912492068124B2B
:10220000884207D0984205D0104A904202D0104A26
:10221000904204D1426C0125ED032A4342642068B8
:102220000122884204D00B49884201D0984204D14F
:1022300081684907490F062902D0016811430160EE
:10224000002030BD002C014000400140004401400E
:10225000004801400004004010B50068024988426F
:1022600001D1FFF763F910BD00440140704770478A
:10227000F8B50446C06F254680352E6821688A6807
:1022800010271206002A1BDA212819D1EFF310803B
:10229000012282F310888A6880239A438A6080F33F
:1022A0001088206F002808D0FEF7F8FC002804D022
:1022B000206FFEF75CFD202824D0204601F08EFB25
:1022C0002168886840061BD5222E19D1EFF31080B3
:1022D000012282F310888A6840239A438A6080F33F
:1022E0001088606F002808D0FEF7D8FC002804D0C2
:1022F000606FFEF73CFD202804D0204601F03EFB35
:102300000020F8BD6F600320F8BD70B504001BD03D
:102310002420E067206801684908490001602068BE
:10232000002505602068456020688560204600F033
:10233000A5F9204680304560E5670560256665663D
:1023400060342576002070BD012070BD094910B5AC
:1023500088420DD1084844692068FFF7D6FF2068FD
:1023600000F056F9214601221431206800F062FA8B
:1023700010BD000008020020B4000020F8B502687B
:102380000446D069116893689E4D06462E40254646
:102390008035002E71D09C4FDE07F60F0F4037437B
:1023A0007ED0C70706D0CF0504D5012717626A681B
:1023B0003A436A60820708D5DA0706D02768022206
:1023C0003A626A6804273A436A60420708D5DA0726
:1023D00006D0236804221A626A6802231A436A60DC
:1023E000020709D520220A40324305D0236808227B
:1023F0001A626B6813436B60020509D54A0107D561
:1024000001222368D2021A626B68202213436B6098
:102410006A68002A39D0800606D5880604D5A16EE0
:10242000002901D0204688476868216889684906E4
:1024300002D4282108422DD0204601F09FFA2168BD
:102440008868400622D5EFF31080012282F31088BD
:102450008A6840239A438A6080F31088606F00285E
:1024600014D06A494163606FFEF738FC00280CD035
:10247000606F416B08E000E012E0830610D58B0628
:102480000ED5A16EA3E020468847F8BD2046FFF791
:102490005DFFF8BD2046FFF759FF00206860F8BDDA
:1024A000236E012B7ED1C3067CD5CB067AD51023B3
:1024B000136222689068264640064036002848DAB3
:1024C000616F086840680004000CE8D0378B8742D1
:1024D000E5D970838869202834D0EFF3108001217A
:1024E00081F3108811681F01B943116080F31088CF
:1024F000EFF31080012181F3108821688A68520867
:1025000052008A6080F31088EFF31080012181F37C
:10251000108821688A684027BA438A6080F310884F
:102520002020286000202066EFF31080012181F335
:10253000108821680A689A430A6080F31088606FE7
:10254000FEF7ACFB02206066308B718B401A81B2C3
:1025500034E0308B718B401A81B2708B00289ED092
:1025600000299CD0EFF31080012686F310881668AE
:10257000FF272137BE43166080F31088EFF31080E9
:10258000012282F3108822689668760876009660A9
:1025900080F310882020286000202066A066EFF3DA
:1025A000108000E00EE0012282F310882268156896
:1025B0009D43156080F31088022060662046FFF777
:1025C00056FEF8BD030606D50B0604D5E16E0029BC
:1025D00000D058E7F8BD4006FCD54806FAD520469D
:1025E000EFF31081012383F31088146840239C4388
:1025F000146081F310882021C1670021C16600F0BA
:102600009BF9F8BD0F0800002001000465380008A0
:1026100010B5040003D0E06F002802D007E00120CD
:1026200010BD002178200155204600F057F82420E5
:10263000E06720680168490849000160204601F010
:10264000ABFA0128ECD0606A002802D0204601F0E5
:1026500041F8206841680122D2029143416020681C
:10266000816808229143816020680168012211433A
:102670000160204601F094F810BD000010B504463A
:102680000068124A124990420CD1886901229203D3
:1026900090438861032109204902C006FEF718FC17
:1026A0001B200FE00B4A90420ED1C869012212058F
:1026B0009043C86118210848FEF70AFC606FFEF7D6
:1026C00031FB1D20FEF7B0FF10BD000000380140B7
:1026D00000100240005000400004004870B586B071
:1026E000064614216846FDF7E9FE364C336800259E
:1026F000354902220320A3421FD18C6953031C4396
:102700008C618C691C4005944C6913041C434C611A
:1027100049690390194005914102012004906B46DC
:1027200026C309206946C006FEF73CFC00220321AF
:102730001B20FEF795FF1B2040E0244CA3423FD115
:10274000CC6901231B051C43CC61CC691C4005945A
:102750004C699B101C434C6149690390194004204B
:102760000591049018216B4626C369461848FEF768
:1027700019FC1848184C21C42560A5608020E5602C
:1027800060602020656120611348083CFEF740FB33
:10279000002801D0FEF7A6F80E487830816A0909B2
:1027A00009018162816A0C221143816274670022EF
:1027B00003211D206662FEF753FF1D20FEF744FF34
:1027C00006B070BD003801400010024000500040CB
:1027D00000040048080002401803002070B5802360
:1027E0001B58202B01D0022070BD00290BD0002ADD
:1027F00009D0012483682403A34206D10369002B76
:1028000003D1CB0701D0012070BD0023036604680B
:1028100063681B020BD5EFF31083012585F3108845
:1028200025680126B6063543256083F3108801F03C
:102830005FFA70BD70B580231B58202B01D0022099
:1028400070BD00290BD0002A09D00124836824031D
:10285000A34206D10369002B03D1CB0701D001208D
:1028600070BD00230366046863681B020BD5EFF399
:102870001083012585F3108825680126B6063543A7
:10288000256083F3108801F089FA70BD70B509499D
:1028900088420ED10848002344691A462146143163
:1028A0000D46E06803F00DFB012229462068FFF782
:1028B000C1FF70BD08020020B40000207047000076
:1028C00030B5C36F202B01D0022030BD00290BD0C2
:1028D000002A09D0012384681B039C4206D10569A4
:1028E000002D03D1CD0701D0012030BDC1640146C8
:1028F00040310A824A8200218422C166115021217E
:10290000C1679C4202D1016900290FD00849C16604
:10291000EFF31081012282F310880068026880239F
:102920001A43026081F31088002030BD0149EEE7B0
:10293000C33E0008653E0008074910B588420AD129
:10294000064800214469206903F001FB2189002227
:102950006068FEF7F9FB10BD08020020B4000020FB
:1029600008B5134A0168914220D100681021016224
:102970000020014600900F486A46406903F0A2FB20
:102980000D48FFF775FC0D4901200A789043087047
:102990004001411820220848491CFFF71FFF0098FA
:1029A000002803D0012006490007486008BD000048
:1029B000005000400000002090020020D0000020C5
:1029C00000ED00E0FEE701688A69D243920701D476
:1029D00000228A6200688169C943C90703D08169FE
:1029E0000122114381617047F7B50446006882B047
:1029F000816900262746C9064037354600920029DE
:102A000045DA1021C16132E00398401C2FD0FEF757
:102A1000A1FB0099411A0398814201D8002826D1D0
:102A200020684168012292031140BA788369DB4330
:102A30001B0417D401239B03994213D0202A11D0E1
:102A4000416819434160FEF785FB00900AE0FEF7FC
:102A500081FB01460098081A192803D92020054354
:102A6000012604E020688069C0438006EFD4206816
:102A70008069C043800602D5002EC5D004E0002E38
:102A800002D121682020C861042005430126216865
:102A90008869C20504D5012215431202CA610126C4
:102AA000410508D508210D43CA012168CA610126E4
:102AB000800502D40AE0800506D50220054321687E
:102AC0000002C861012601E0002E0FD02046FFF76A
:102AD0007AFF20684168074A11404160606C2843D2
:102AE0006064202078700020B8703870304605B0DF
:102AF000F0BD000000E800FE890510B5890D120444
:102B00001143029C19430268214349005068490857
:102B1000630D034C234398430843506010BD0000ED
:102B2000FF63FF03F8B51E4617460D4604461EE038
:102B3000701C1CD0FEF70EFB0699401AB04201D85B
:102B4000002E14D120688169284688430DD00020CA
:102B5000B8420CD1616C2020014361644034607044
:102B60000020A07020700120F8BD0120F0E720684F
:102B700081692846884304D00020B842D8D000207C
:102B8000F8BD0120F9E70000F7B52026002705462B
:102B9000044640353DE02046029A0199FFF724FFA4
:102BA000002801D00120FEBD20688069C043800656
:102BB0001BD420688169C943490702D4218D0029AB
:102BC0002CD18169C943C90604D41021C1610420F4
:102BD000606400E067642068C66120684168104A4C
:102BE000114041606E70AF7011E0FEF7B3FA0299C8
:102BF000411A0198814201D800280AD120688069D1
:102C0000C043400705D5606C304360646E702F7020
:102C1000C8E720688069C0434007BCD40020FEBDDF
:102C200000E800FE70B516460D4604461EE032462A
:102C300029462046FFF7D8FE002801D0012070BDAC
:102C4000FEF788FA801BA84201D8002D0ED120681B
:102C50008069C043800609D5616C2020014361640E
:102C6000403460700020A0702070E7E72068806921
:102C7000C0438006DBD4002070BD70B516460D46FB
:102C8000044620E0324629462046FFF7ADFE0028E4
:102C900001D0012070BD681C15D0FEF75BFA801BC7
:102CA000A84201D8002D0ED120688069C04380075A
:102CB00009D5616C202001436164403460700020BC
:102CC000A0702070E5E720688069C0438007D9D4F0
:102CD000002070BD3EB500211C4800910191029179
:102CE000416081600124184A04610260C1600422CD
:102CF0004261017641768176FF22C476C232C2619A
:102D000002460162203211718462FDF7DFFE002865
:102D100001D0FDF7E7FD01200003019000040290BF
:102D2000009469460948FDF749FE002801D0FDF7E7
:102D3000D9FD0220009069460448FDF73FFE0028B7
:102D400001D0FDF7CFFD3EBD002401402C01002045
:102D500008B50848416901221143416140690321D6
:102D60001040009000220920FEF77AFC0920FEF7AF
:102D70006BFC08BD0010024010B50B4A00210B4847
:102D800002F072F80A49084A88600021094802F0F6
:102D90006BF8054A0021084802F066F8024A002153
:102DA000064802F061F810BDF8660008ED30000832
:102DB000000000209907000829440008B1300008ED
:102DC000F0B587B014216846FDF778FB1A484269D0
:102DD000012149040A43426142690A40059242695D
:102DE00049000A434261406917240840134FE40236
:102DF0000590002221463846FEF7A6F9FF26013647
:102E0000092000223146C006FEF79EF900940024F6
:102E1000012501950294694638460394FEF7C2F8ED
:102E2000092002946946C006009601950394FEF7B6
:102E3000B9F807B0F0BD00000010024000040048DF
:102E400010B51348114901601249416000218160A9
:102E50000161416181610122C161C2600162FEF7CD
:102E6000C9F9002801D0FDF73DFD00210848FEF713
:102E700077F9002801D0FDF735FD00210448FEF761
:102E800094F9002801D0FDF72DFD10BD005400403D
:102E90006C0100200E09002010B596B000240F949C
:102EA00010941194129413941C2108A81494FDF703
:102EB00005FB20216846FDF701FB2D482B490160E9
:102EC000FF21E031846041600461446163218461D9
:102ED000C160FEF737FF002801D0FDF703FD012098
:102EE00000030F900FA92248FEF78AFF002801D0A7
:102EF000FDF7F8FC1E48FFF734F9002801D0FDF774
:102F0000F1FC139413A91A481494FEF7EDFE00285F
:102F100001D0FDF7E7FC60200D94099408900A9415
:102F20000C940C2208A90E941148FFF7B2F800285F
:102F300001D0FDF7D7FC01200094400302940590D6
:102F4000019403940494694607940948FEF79CFE93
:102F5000002801D0FDF7C6FC0C210548FFF728F931
:102F60000348FFF76DF816B010BD0000002C0140BB
:102F7000C001002010B50C480A490160E121490256
:102F8000416000218160C16001618161C1610C22E9
:102F9000016242614162FFF73BFB002801D0FDF76F
:102FA000A1FC10BD003801400802002010B50C48FB
:102FB0000A4901604B21C901416000218160C16063
:102FC00001618161C1610C22016242614162FFF7CE
:102FD0001FFB002801D0FDF785FC10BD005000400C
:102FE00090020020FEE7000010B50178422959D177
:102FF00041784D2956D100221146435C491C9A184C
:103000001E29FADBC37F847F1902214349BA8A4211
:1030100048D141790279090211434ABA22490A800A
:10302000C279837912021A4352BA4A80427A037AE9
:1030300012021A4352BA8A80C27A837A12021A435F
:1030400052BACA80427B037B12021A4352BA0A81E7
:10305000C27B837B12021A4352BA4A81427C037CB0
:1030600012021A4352BA8A81C27C837C12021A432A
:1030700052BACA81427D037D12021A4352BA0A82B1
:10308000C27D837D12021A4352BA4A82427E037E77
:1030900012021A4352BA8A82C27E837E10021843F9
:1030A00040BAC88210BD0000120100207047000025
:1030B00003220021012002F004FE0A4D0A4E0127DE
:1030C000686100231A461946686902F06EFE0128FD
:1030D000F7D130783C46844360018019401CFFF7EB
:1030E00083FFEEE700000020D00000208CB076487F
:1030F000FDF708FC0124E12108234E22490273A0B8
:10310000009401F073FA1821059001F067FE200287
:1031100002F068FA002604900E2003900096012326
:103120003246052102960194304601F0FDF904462D
:10313000059801F0D7F9401C05D1059801F0EEF98A
:10314000002002F077FC634D0499059801F0A4FA81
:103150000700F9D0781C04D15F4801685F488142BC
:10316000F2D1A06A4B21C088C900884203D8616AA5
:103170000120087001E0606A0670A98968468180B4
:103180002A8A0281A06A182201806846A16A008901
:10319000488006A85249FDF729F96846A16A008BC4
:1031A00088806846A16A408BC8806846A16A808B87
:1031B00008816846A16AC08B48816846A16A008C74
:1031C00088816846A16A408CC8816846A16A808C63
:1031D00008826846A16AC08C48826846A16A008D50
:1031E00088826846A16A408DC8826846A16A808D3F
:1031F00008836846A16AC08D488323463A460499ED
:10320000059801F057FA206A0078002828780AD03B
:10321000002810D101210022C9033248FDF794FF94
:103220000120687007E0002805D10122D1032D4854
:10323000FDF78AFF6E70206A4178002902D00120D4
:10324000287004E069782E70002900D10670206A89
:103250008078002801D0002200E001220121C9026B
:103260002048FDF771FF206AC078002801D00022B5
:1032700000E00122012109031A48FDF765FF206AD9
:103280000079002801D0002200E001220121490339
:103290001448FDF759FFE16A0020085E642803D84E
:1032A0001148098801604FE7002804DA0E480660DB
:1032B000E06A068048E76428F5DD0B496420086071
:1032C000E16A088040E700002C01002075617274FB
:1032D0003100000000000020CC0000205A42B2065D
:1032E0001201002000040048402C014010B508489D
:1032F000006801681022114301600648202201780D
:10330000490109180248491CFFF768FA10BD00007E
:1033100090020020D000002010B5FCF733FF0446D7
:1033200003F03CF8002803D001200349000748605F
:103330002046FCF72BFF10BD00ED00E030B595B046
:1033400030216846FDF7BAF800240F94122000904F
:103350000D94012012940390059010200E94109467
:10336000139406900490C002099040010C94022529
:103370000A90119408950B946846FEF7BFFA00284E
:1033800001D072B6FEE707200C900E9401210D9536
:103390000F940CA8FEF7DCF9002801D072B6FEE706
:1033A000212010901294139410A8FEF75DF90028C4
:1033B00001D072B6FEE715B030BD704710B50248B7
:1033C000FEF78DFD10BD00005C030020F0B5026823
:1033D0001A4B1B4C984201D0A04203D17025AA433E
:1033E0004D682A43174D184E184F98420AD0A042F4
:1033F00008D0174CA04205D0A84203D0B04201D05B
:10340000B84205D11446032212029443CA682243EB
:103410008024A2434C69224302608A68C2620A681F
:103420008262984205D0A84203D0B04201D0B8428F
:1034300001D10969016301214161F0BD002C014006
:1034400000040040004001400044014000480140A9
:103450000020004010B5CB06DB0E0121046A994024
:103460008C430462016A9A401143016210BD30B579
:103470008468FF252D021B021343AC430B432343F7
:10348000836030BD826870239A430A4307210A4350
:1034900082607047F0B5026A520852000262056A03
:1034A000436882697024A24392080C689200144316
:1034B000022295438A68164E2A43144DA84207D02B
:1034C000B04205D0134FB84202D0134FB84206D1D4
:1034D0000827BA43CF681743042297433A46A842C5
:1034E00007D0B04205D00B4DA84202D00A4DA842E9
:1034F00006D103252D02AB434D691D438B692B4338
:1035000043608461496841630262F0BD002C014060
:1035100000400140004401400048014070B5026A8B
:1035200010239A430262056A426883697324240265
:10353000A3430C6824021C4320239D438B681B017A
:103540002B43124DA84208D11D46CB688026B543B7
:103550001B012B434025AB4308E00D4DA84205D08D
:103560000C4DA84202D00C4DA84208D10325AD0253
:10357000AA434D69AD0015438A6992002A4342600F
:10358000846149688163036270BD0000002C0140C2
:1035900000400140004401400048014070B5026A0B
:1035A000FF2301339A430262056A4368C2697024AB
:1035B000A24392080C6892001443012252029543E0
:1035C0008A6812022A43124DA84208D11546CA68D9
:1035D000C614B54312022A430515AA4308E00D4D4F
:1035E000A84205D00C4DA84202D00C4DA84208D1EB
:1035F00003252D03AB434D692D011D438B691B0131
:103600002B434360C4614968C163026270BD00001E
:10361000002C0140004001400044014000480140AE
:1036200030B5026A01231B039A430262046A4268AE
:10363000C36973252D02AB430D682D021D43012381
:103640005B039C438B681B0323430C4CA04208D0B4
:103650000B4CA04205D00B4CA04202D00A4CA04219
:1036600005D10124A403A2434C69A4012243426072
:10367000C56149680164036230BD0000002C01404F
:1036800000400140004401400048014030B5036A59
:10369000046A6408640004628469F025AC43120182
:1036A00022430A24A3430B438261036230BD30B539
:1036B000036A1024A34303628469036A0F252D0360
:1036C0001203AC432243A024A3430901194382619E
:1036D000016230BD10B5818CC90707D001684A6806
:1036E00001235B049A43836A1A434A60818C8907E9
:1036F00007D501684A6801231B049A43C36A1A4329
:103700004A60818C490707D501684A6801239B04F8
:103710009A43036B1A434A60818C090707D50168F5
:103720004A680123DB039A43436B1A434A60818C46
:10373000C90607D50268916801231B039943836B6F
:1037400019439160818C890607D501688A68012335
:103750005B039A43C36B1A438A60818C490612D576
:1037600003685A6801210905046C8A4322435A60A0
:10377000026C8A4207D10268516803235B059943B2
:10378000436C19435160818C090607D501684A686A
:103790000123DB04806C9A4302434A6010BD0000A1
:1037A000FEB507460025803704467D60FDF7D2FC54
:1037B000019020680068264600076036002819DA64
:1037C000274800900121002249052046019B00F076
:1037D000A5FB00280ED0EFF31080012181F31088A3
:1037E00021680A6880239A430A6080F310882020A9
:1037F000E06729E020680068400728D51848009055
:103800000121002289052046019B00F087FB00284A
:103810001DD0EFF31080012181F3108821680A6820
:10382000FF2321339A430A6080F31088EFF310805E
:10383000012181F3108821688A68520852008A6049
:1038400080F310882020386035760320FEBD2020CC
:10385000E06738602566656635760020FEBD0000AD
:10386000FFFFFF0110B5406A0022014640314A8344
:103870004A82FEF76BFD10BDF8B5446AE06F25463D
:1038800080352E682168896800270906002906DA34
:10389000212804D152200753204600F09FF82068C9
:1038A0008068400606D5222E04D15A2007532046B0
:1038B00000F064F868681021084368602046FEF74D
:1038C00045FDF8BD70B501468969406A002220298E
:1038D00038D05A210A52EFF31081012383F3108864
:1038E00003681C68FF250135AC431C6081F3108818
:1038F000EFF31081012383F3108803689C68640848
:1039000064009C6081F31088EFF31081012383F33E
:10391000108803689C684025AC439C6081F3108844
:10392000202380210B50016E01290BD1EFF3108170
:10393000012383F3108803681C681025AC431C60C6
:1039400081F310884266016E012902D0FEF79EFFC6
:1039500070BD5821095AFEF78AFC70BD10B5406A47
:1039600001214166016E012902D0FEF7A7FF10BDBB
:103970005821095A4908FEF77AFC10BD10B5EFF33B
:103980001081012282F3108802681368FF24213419
:10399000A343136081F31088EFF31081012282F3B7
:1039A0001088026893685B085B00936081F310885D
:1039B000016E01290BD1EFF31081012282F31088EF
:1039C000026813681024A343136081F31088202237
:1039D00080210A5000210166816610BD10B5EFF309
:1039E0001081012282F3108802681368C024A34367
:1039F000136081F310882021C16710BD70B50146A6
:103A00004031034680338C8B1D680268222D04D020
:103A1000906908210843906170BD928C456D2240E9
:103A20002A80426D921C42654A8B521E4A834A8B01
:103A3000002AF1D1EFF31082012484F31088046886
:103A40002568FF262136B543256082F31088EFF301
:103A50001082012484F310880468A5686D086D0045
:103A6000A56082F3108820221A60002383664366D3
:103A70000468626812020BD5EFF31082012585F30A
:103A8000108825680126B606B543256082F31088A4
:103A9000026E012A02D0FEF7F9FE70BD0366EFF355
:103AA0001082012383F310880468256810239D4346
:103AB000256082F310880268D469E443E40600D4E8
:103AC0001362098BFEF7D3FB70BD70B50146403120
:103AD000034680338C8B1D680268222D04D09069C8
:103AE00008210843906170BD928C2240446D227081
:103AF000426D521C42654A8B521E4A834A8B002AF1
:103B0000F1D1EFF31082012484F310880468256852
:103B1000FF262136B543256082F31088EFF310822B
:103B2000012484F310880468A5686D086D00A56001
:103B300082F3108820221A6000238366436604689B
:103B4000626812020BD5EFF31082012585F310880D
:103B500025680126B606B543256082F31088026EFB
:103B6000012A02D0FEF792FE70BD0366EFF31082C9
:103B7000012383F310880468256810239D43256082
:103B800082F310880268D469E443E40600D4136227
:103B9000098BFEF76CFB70BD70B504468068216927
:103BA000E2690843616900251143084321680A68F6
:103BB000454B1A4002430A602168486803221203F9
:103BC0009043E26810434860A169206A2268084374
:103BD00091680B231B029943014391603B49206884
:103BE000884210D13A48006B8007800F1AD0012814
:103BF00005D0022805D0032816D1022115E00421A2
:103C000013E0082111E0334988420BD03249884241
:103C100008D03249884205D03149884202D0314922
:103C2000884201D1002100E010210122E369D20382
:103C30002D482E4E934222D1002906D002290BD0C6
:103C4000042905D0082933D117E0FDF721FE01E052
:103C5000FDF72EFE002832D0616840004A08801827
:103C6000FCF772FC01461039B14221D81F49491CAA
:103C700001400007400F08431FE01046ECE7002911
:103C800006D002290BD0042905D0082910D111E053
:103C9000FDF7FEFD01E0FDF70BFE00280FD0616887
:103CA0004A081018FCF750FC01461039B14203D9FC
:103CB000012504E01046F2E780B22168C8600020C8
:103CC000A066E066284670BDF369FFEF003801404A
:103CD000001002400044004000480040004C0040FA
:103CE000005000400014014000127A00EFFF000075
:103CF00070B504464165403002830020254680357A
:103D0000686022212960616F002919D0204B8B62E5
:103D1000636F2049D962636F1F491963616F13464E
:103D20004863666D216832462431606FFDF79AF86A
:103D3000002805D01020686020202860012070BD78
:103D4000206900280CD0EFF31080012181F3108846
:103D500021680A68FF2301331A430A6080F3108840
:103D6000EFF31080012181F31088226893680B43E0
:103D7000936080F31088EFF3108081F3108821683E
:103D80008A6840231A438A6080F31088002070BD3F
:103D9000C53800085D3900087938000870B54165FC
:103DA000014640310A834A830023836601228468E6
:103DB0001203FF25944204D10469002C13D1264C30
:103DC0000AE07F26002C09D001252D07AC420CD13A
:103DD0000469002C05D03F248C8307E00469002C83
:103DE00001D08E8302E08D8300E08B830146803119
:103DF0004B6022230B60EFF31081012383F31088C3
:103E000003689C6801252C439C6081F310888168BD
:103E1000914202D1016900290ED0104981660169E1
:103E200000290BD0EFF31081012282F31088006883
:103E30000268FF23213309E009498166EFF310810D
:103E4000012282F310880068026820231A4302606E
:103E500081F31088002070BDFF010000CB3A0008FC
:103E6000FD39000810B5C16F212910D1014640313C
:103E70004A8A002A0CD0C26C03681288D205D20D7F
:103E80001A85C26C921CC264488A401E488210BDCA
:103E9000EFF31081012282F31088026813688024F6
:103EA000A343136081F31088EFF31081012282F3A2
:103EB00010880068026840231A43026081F310886A
:103EC00010BD10B5C16F21290ED1014640314A8A7B
:103ED000002A0AD0C26C036812781A85C26C521C80
:103EE000C264488A401E488210BDEFF3108101224F
:103EF00082F31088026813688024A343136081F35F
:103F00001088EFF31081012282F3108800680268A4
:103F100040231A43026081F3108810BDFFB50646A6
:103F200081B080360546044660350A9F2EE0781C35
:103F30002CD0FDF70FF90499401AB84214D8002F7D
:103F400012D020680168490720D5C169C943090713
:103F50000CD4082707622046FFF710FD7760002089
:103F60002876012005B0F0BD0320FBE7C069C043FF
:103F700000050BD401202168C00208622046FFF72B
:103F8000FDFC2020706000202876EDE72068C169E4
:103F90000298884305D0002103988142C7D00020B1
:103FA000E0E70121F8E7000010B50248FEF7E6F966
:103FB00010BD00000802002010B5074C2068C06941
:103FC000C00605D52046FEF7CBFC2168102008620C
:103FD0000148FEF7D3F910BD90020020F8B5040C9B
:103FE0008BB2264682B25E430D0C1046370C584306
:103FF000360480190021794116466E43370C360489
:104000008019794126466E438919F8BD30B474464B
:10401000641E2578641CAB4200D21D46635D5B00C4
:10402000E31830BC184700008307FF22DB0E9A40DC
:104030008907090E9940002808DB830809489B007E
:104040001B18186890430843186070470007000F5A
:104050000838830804489B001B18D869904308431C
:10406000D861704700E400E000ED00E00021C943A2
:104070000160416000218160C1600161034A4161CA
:104080008261C16141620262816270471027000053
:10409000F7B5044684B000200190E06AC16B204669
:1040A000884700284BD000200290E06A4068401CFE
:1040B00000900698002802D0A669656909E0656A43
:1040C000002D02D1A06A002801D0A66A01E00025D7
:1040D0002E460098002870D07D213046C900FCF79C
:1040E00033FA7D21C9006943431801990598009A64
:1040F0004118E06AC76A2046B847002806D0411C2C
:1041000007D0A168002921D000211DE04C4868217A
:104110000160207B800712D5E06A006801280ED17B
:10412000474E3568682D03D06F2D01D0092D06D17B
:10413000204600F0D1F9204600F0D4F93560002087
:10414000C04307B0F0BD491C8142FCDB019909184E
:1041500001910099081A009061D10298002802D0BC
:10416000012866D12EE0E06A41680598415C069816
:10417000002807D00F2921D014DC05291ED00629DC
:1041800014D11BE0062919DD0F2907D0102905D00D
:10419000162915D0172903D0002008E0052006E0D5
:1041A000092004E0102909D0162909D00120009027
:1041B000002807D00120029031E03AE00420F6E721
:1041C0000620F4E7E36A05985A68069F815C002F91
:1041D00006D004291BDD112919D0172917D005E0B5
:1041E0000F2910D010290ED017290ED00020996861
:1041F0000818019900900818D96888420AD910480F
:10420000104901609BE7401D02E0093000E0401CBE
:10421000105CECE7022002900098002809D0E069C9
:10422000002803D1216A002900D155E70546266AF6
:1042300052E7E06A019A036B20460599984780E7A8
:10424000CC0000205B42B20670B50068049C451C9F
:1042500009D0207061701012A070E27018122071E5
:104260006371062070BDFCF76EF802780A70007961
:10427000487002207047000070B506460D46087869
:1042800031681446814203D0002801D0002070BD5F
:10429000A01E81B2284600F0E5F829191E394A7F90
:1042A0000B7F11021943884201D1204670BD307B3B
:1042B000400702D5304600F01BF804490248086068
:1042C0000020C04370BD00005A42B206CC0000205E
:1042D000704738B5016B04464A7A086900920B7A38
:1042E0008A7A45684968A84701206060002038BD87
:1042F000006B00690169084710B50446006B00288F
:1043000005D0006801F01CFB206B01F019FB204672
:1043100001F016FB10BD01207047000008781178ED
:10432000884207D0002805D00449034808600020CF
:10433000C0437047002070475F42B206CC000020A7
:104340000868801E08600020704710B5046BE268A2
:10435000002A05D00122FFF79BFE0020E06010BD7F
:104360000022FFF795FE0028F9D10121E16010BD80
:1043700010B5006B1A460069C468A047002804D035
:10438000034905200860801F10BD012010BD0000FA
:10439000CC0000200020704770B5006B7D230069C1
:1043A00015468468DB00A047002804D00349052097
:1043B0000860801F70BD284670BD0000CC00002042
:1043C00070B50C46054689B200F04CF801462855F8
:1043D000601C090A2954A01C70BD0000027C9207D1
:1043E00001D5FF2200E0F722002904DB914202DC24
:1043F0000160002070470349162008600020C04378
:1044000070470000CC00002010B504467D214069B3
:10441000C900FCF799F87D22A169D20051434018E8
:1044200001F0F0FA10BD000000240C4D01260C4FE5
:10443000F6032878002805D0641CE4B2052C09D3C3
:10444000002407E06878002804D10122314638466C
:10445000FCF77AFE642001F0D5FAEAE700000020BC
:104460000004004870B50A4DFF23EE1D1A46F936C8
:1044700005E0047854402A5D5A40335D401C0C46E8
:10448000491E89B2002CF4D11802104370BD0000FF
:1044900054670008FDF752F8FEF750FFFEF790FC56
:1044A000FEF756FCFEF766FDFEF714FCFEF7C8FCAF
:1044B000FEF77CFDFEF7F0FC0122D1030548FCF776
:1044C00043FEFEF713FF00F097FCFEF755FC00F0EB
:1044D000ADFCFEE700040048002802D0C16A096C68
:1044E00008477047002802D0C16A896B0847034912
:1044F000162008600020C04370470000CC00002058
:10450000002802D0C16A496C084703491620086098
:104510000020C04370470000CC000020002802D0DB
:10452000C16AC96C08477047FFB581B006463020A4
:104530000D9F0B9D01F056F8041E3CD0029841C41B
:1045400002980026083C002837D001F04BF8206282
:10455000002834D00299FBF7AFFF0498A0600398BD
:10456000E060049800282FD001F03CF86062002839
:104570002CD00499FBF7A0FFA5610A98E061002DFB
:1045800028D06800054601F02DF8E062002823D00D
:104590002946FBF791FF27610C986061002F1FD01F
:1045A0007800054601F01EF8A06200281AD02946BE
:1045B000FBF782FF204605B0F0BD2662CDE720461E
:1045C00001F0BEF90020F6E76662D5E7206A01F047
:1045D000B7F9F4E7E662DEE7606A01F0B1F9F5E702
:1045E000A662E7E7E06A01F0ABF9F5E7FFB581B055
:1045F0000198274F1646002831D0007800282ED089
:10460000342000F0EFFF05002BD0FFF72FFD2148ED
:10461000E8620198FCF768F90090002824D0142083
:1046200000F0E0FF2863002823D0009904460161D0
:104630000198FBF7B9FE401C00F0D4FF2060000099
:1046400017D00199FBF78AFE029860604E2E16D0B3
:10465000452E14D04F2E12D02846FFF75FFF1620AC
:104660000BE0002005B0F0BD2846FFF757FF022001
:1046700003E02846FFF752FF0C203860F1E7A672EE
:10468000049820720A9860720020E0602846E9E7EA
:10469000CC00002054690008002802D0C26A926A47
:1046A00010470349162008600020C04370470000EF
:1046B000CC000020FFB5CBB01D4607002BD0F86A18
:1046C0004C99406802900C1820462038C07F099011
:1046D0000298085C00906078A1780002401886B2C9
:1046E0000998069000980790F86A4DA9C2694C98FD
:1046F0009047089000980300FFF788FC18F90F0F07
:104700006969B5D2F8F9F9F9F9F9F9F9E2F7F6F9C1
:10471000F9F9F9F5F4F9162161E1022816D02A6AAF
:1047200003CD0092F9A2E37824791B021D19741AB3
:104730007D216B1E09018B420ED3F7A00190012051
:104740000295039204910AAB009057E06A6AE96807
:10475000A8680092FAA2E6E7002C02DB6119814208
:104760000ADD002C00DB761900200392F8A16C46CC
:1047700043C40AAB0222A3E1F86A0AA9826906A827
:104780009047E917490F4919C9106A0700D001225B
:1047900089180AAA11540099164600228C466519F8
:1047A0001146401C07E063461B5D93401943072AEE
:1047B00008D0521C641CA542F5DC002A01D03154FB
:1047C000401CBFE2315400210A46401CF2E7042895
:1047D0001AD0EA69A969E86A0090E6A0E37824792A
:1047E0001B021D19B41A6A1E7D2A13D37D21039062
:1047F000C9A2049101206C4625C40AAB032206A974
:10480000384600F063FF9DE26A692969A86A009052
:10481000DCA0E3E7002C03DB621901928A4209DD88
:10482000002C00DB7619CAA200216C46039046C416
:104830000AAB44E1F86A0AA9826906A890476A00AF
:104840000AA90A54401C0AE0009B62009B5A1B0AFA
:104850000B54009B401C9A5C0A54401C641C019A37
:10486000A242F1DC6EE26868301A02D42968814203
:1048700001DCCAA16EE0E178227909028918FF22E1
:104880001202914208D0002907D0CFA2002003963F
:104890000192029100902FE001212A6A1154BAE09E
:1048A000E869311A02D4A869884201DCD6A151E036
:1048B000E078227900028018EA6A49005052AAE0A2
:1048C000E07821790002421860797B238446686889
:1048D0001B01311A501E984203D26046C00090421C
:1048E0000DDA05E09EE080E05FE016E076E02FE282
:1048F000D1A101206C460FC40AAB0322E0E00029DD
:1049000004DB2B688818984202DDB618D7A121E095
:10491000A31D286A00F044FA38E0E078217900020B
:104920004118E8696279301A4B1E7B2B02D24B008A
:10493000934207D07B22D8A30120019303920291D6
:104940000090D9E7002804DBAB6942189A420BDDDE
:104950007618E0A100206C4643C40AAB022206A9E7
:10496000384600F0B3FEEDE106210DE0029B4C9CC1
:104970005B18E45C4C9E24029B195B784600E318AC
:10498000EC6A401CA353891C8242EFDCF86A0AA936
:10499000826906A8904704464C98042201190AA887
:1049A0000019FBF723FD201DCCE1F86A0AA98269F2
:1049B00006A89047411C0446B4200AAD68544E1C1A
:1049C000FF20A8558E1C1622A819CEA1FBF70EFDBC
:1049D00030461630021B521E2A55B3E15C21CF48E7
:1049E00001600020C0434FB0F0BDE869301A00D527
:1049F0005CE7A9698142FBDDE17822790902891827
:104A0000ED6A43006279A479E85A1202121908404B
:104A10008A431043E8520AA84D9A4C99FBF7E6FCEA
:104A20004D988FE1E078217900024018009060797C
:104A3000A1790002401881B2E079227A0002801840
:104A4000EB69627AF41A0194CC1A431E792B07D2CF
:104A5000009B012B04DB7D2B02DC4300934210D032
:104A60007D21009A0591792302AC0DC4AC49012047
:104A7000019100900AAB032206A9384600F026FEF9
:104A800060E1019A002A0CDB009BD3180493AA6909
:104A9000934206DC002C07DB23180393934202DCCD
:104AA00013E0002C00DB09180198002801DB0098B6
:104AB00036189C4A00206C46039145C40AAB02227A
:104AC00006A9384600F002FE3CE1F86A0AA98269AC
:104AD00006A8904700990AAA490011540A21401CCF
:104AE0000DE0029A4C9B52189B5C4C9E1B02921943
:104AF000527866009A18EB6A891C9A53641C039AD0
:104B0000A242EEDC0AAA019919E100007265616413
:104B10005F62697473000000496C6C6567616C20AA
:104B20006E62206F662076616C7565732025642047
:104B3000696E20257320286D6178202564290A007C
:104B4000726561645F696E7075745F626974730029
:104B5000496C6C6567616C20646174612061646498
:104B60007265737320307825305820696E20257364
:104B70000A000000726561645F726567697374653D
:104B800072730000726561645F696E7075745F7244
:104B9000656769737465727300000000496C6C6529
:104BA00067616C2064617461206164647265737311
:104BB00020307825305820696E2077726974655FDF
:104BC0006269740A00000000496C6C6567616C20C2
:104BD000646174612076616C756520307825305889
:104BE00020696E2077726974655F626974207265EE
:104BF0007175657374206174206164647265737388
:104C0000202530580A000000496C6C6567616C20F3
:104C10006461746120616464726573732030782507
:104C2000305820696E2077726974655F72656769B4
:104C3000737465720A000000496C6C6567616C20D2
:104C40006E756D626572206F662076616C75657336
:104C500020256420696E2077726974655F626974CB
:104C60007320286D6178202564290A00496C6C65E1
:104C700067616C2064617461206164647265737340
:104C800020307825305820696E2077726974655F0E
:104C9000626974730A000000496C6C6567616C207E
:104CA0006E756D626572206F662076616C756573D6
:104CB00020256420696E2077726974655F7265676C
:104CC00069737465727320286D6178202564290AE0
:104CD00000000000496C6C6567616C206461746160
:104CE00020616464726573732030782530582069C0
:104CF0006E2077726974655F726567697374657237
:104D0000730A00004C4D42404C49424D4F444255BD
:104D1000535F56455253494F4E400000CC0000208F
:104D2000B8690008046A0008EC6A4B00E45A240AD7
:104D30001454EC6A401CE35C1354401C491C049B53
:104D40008B42F1DCF96A099A0968114308D00CE03A
:104D500009A2012101920AAB009102900A46FEE5E8
:104D6000397C490701D400203DE602460AA93846AD
:104D700000F0C6FC37E60000556E6B6E6F776E2054
:104D80004D6F646275732066756E6374696F6E2013
:104D9000636F64653A2030782530580A00000000BF
:104DA000F0B5002401269C460D468F1813E06A1AC0
:104DB000D20863469B5C3246A240134201D00122D6
:104DC00000E000224255641CE217520F1219D2086B
:104DD000D200A41A6D1CAF42E9D8F0BD002802D061
:104DE000C26A126910470349162008600020C043B8
:104DF00070470000CC000020EFF3058000280CD1A4
:104E0000EFF31081084A0029106801D0022804D06D
:104E1000002805D00020C04370470520C0437047DC
:104E200001201060002070477800002010B5EFF3DB
:104E3000058000280CD1EFF310810A4A0029106880
:104E400001D0022804D0012805D00020C04310BDA5
:104E50000520C04310BD0220106000F097FE002026
:104E600010BD000078000020F0B585B08C4600230E
:104E7000EFF30581039300294BD1EFF31081002953
:104E800003D025490968022943D0002841D00023D6
:104E9000FF256C4601351821237404AC002A2CD060
:104EA0001368002B00D01C469369002B03D01946D1
:104EB0005B1E382B02D21379DB0702D0002005B02D
:104EC000F0BD5669002E00D0B5089768D368002F52
:104ED0000ED05C2B1DD31269002A1AD0002E18D0D8
:104EE0006E4686C663462A46214601F01EFA0FE04A
:104EF000002B0ED11269002A0BD103AA0192009156
:104F0000AAB26346214601F0E7F9012801D000204A
:104F100003900398D3E7000078000020F8B5134C05
:104F20000F46666905462068001D00F091FC681C6C
:104F300007D1002F05D021680D48091D00F0DAFCCB
:104F4000F8BD2068751945602168B54204D2A06893
:104F5000091D00F0B7FCF8BD6068091D00F0B2FC47
:104F6000206B8542F7D22563F8BD000028000020A1
:104F700094080020F8B5054600F0C8FC294C2069CB
:104F8000401C20612068284F002803D0E0690028D9
:104F900025D02AE025602069012826D1002614208A
:104FA0007043C01900F080FC761C382EF7D31F48E0
:104FB00000F07AFC1D48143000F076FC1B482830C5
:104FC00000F072FC19483C3000F06EFC174850307D
:104FD00000F06AFC154860601430A06005E02068AD
:104FE000E96AC06A884200D82560E06A401CE06235
:104FF0006864E86AA169884200D9A0611421484325
:10500000C019291D00F076FC00F08CFCE069002836
:1050100006D02068E96AC06A884201D200F0B2FC7A
:10502000F8BD000028000020E40300204408002010
:1050300038B500F06BFC114CA06800281AD110485C
:1050400000F032FC0E48143000F02EFC0C482060BA
:1050500014300B4B6060002028331A460090503209
:1050600010210A2000F04BFEA060002802D005A10C
:1050700000F094FC00F056FC38BD000064000020F5
:10508000A8080020546D72510000000010B5026C99
:105090000C46002A0CD0C1688B18C36041688B4253
:1050A00001D2194601E00168C1602046FBF79EF974
:1050B00010BDF8B5856B174604460026026C002A21
:1050C00011D0002F19D0E068FBF790F9E168206C4F
:1050D000091AE1602268914202D26168081AE06010
:1050E000022F17D019E02068002816D1606801F05F
:1050F000B3F90646002060600FE0A068FBF776F980
:10510000216CA0684018A0606168884205D32068BF
:10511000A06002E0002D00D06D1E6D1CA56330461E
:10512000F8BD10B504464030407E002805D0012867
:1051300006D0022807D072B6FEE7206B00F000FC14
:10514000204600F0FDFB10BD01210E484903420737
:1051500005D0C01DC0080B4AC000821A891A0A4A2D
:105160000023411809C20839C908C900183A11605A
:105170004B600B600B1A0AC093600120C00753609C
:10518000D0607047781600208C0000200F4E104C25
:10519000104F11E000F0BAFBF068C568281D00F060
:1051A00057FB2069401E2061E068401EE06000F06F
:1051B000B9FB2846FFF7B5FFE0680028EAD1386858
:1051C0000128F9D900F0DEFBF6E700008008002096
:1051D00028000020E403002010B5002807D000219B
:1051E000416001600B460A46C16000F0DEFD10BD63
:1051F00070B5049C1D46002909D022602164E0633B
:105200000121204600F09BFD4034257370BD2460D1
:10521000F4E7FFB581B097000C9C0E460A9DA522CD
:105220003946206BFBF723F9206B3F1FC019C708D5
:10523000FF00780701D072B6FEE72218315C2032F9
:105240001175315C002902D0401C1028F5D320468E
:10525000403000260090C670382D00D33725E56217
:105260002665201DE56400F02AFB2046183000F07A
:1052700026FB24613820401B6462A06166650098AB
:1052800006763846049A019900F010FA20600B98CF
:10529000002800D0046005B0F0BD000030B5114911
:1052A00000E011460A688242FBD34B685C188442D6
:1052B00003D1406818184860084643681C18944297
:1052C00009D1084C103C2468A24209D052689A18AF
:1052D00042600A6812680260814200D0086030BDF6
:1052E0000460F9E78C00002070B5002441600B4D8C
:1052F0000061914206D8D11A8269914206D2011DFD
:10530000686807E09A4203D2994201D3012403E07E
:10531000011D286800F0D6FA204670BD6400002008
:1053200010B5044600F0F2FAA06B002804D0002467
:1053300000F0F8FA204610BD0124F9E730B589B035
:105340002C4D4EE00498002806DA059A0799069835
:1053500090470498002844DB069C6069002802D02E
:10536000201D00F075FA02A800F0A4F80246049887
:105370000300FEF74BFE0A06060636232F06063606
:1053800023360598A169034641182046FFF7ACFF74
:10539000002826D0616A20468847E069012820D18C
:1053A000002000900598A169002342181946204664
:1053B00001F078F9002814D172B6FEE70598A061D3
:1053C000002805D0811813462046FFF78DFF08E01E
:1053D00072B6FEE72C20005D002802D1204600F0C6
:1053E000AFFA002204A9A86800F0EBFD0028A9D1BB
:1053F00009B030BD64000020FEB50F46054600F040
:10540000F9FB01A800F056F804460198002802D0E4
:1054100001F0C4F8FEBD1E4E002F10D07068006869
:10542000002833D00027291B3A46B06800F0C8FA9C
:1054300001F0B4F80028EDD100F0A4FAFEBDA542B9
:10544000F1D801F0ABF830682746C068C468201D69
:1054500000F0FEF9E069012812D1A0692B4641193C
:105460003A462046FFF740FF002809D000200346B7
:10547000014600902A46204601F014F9002803D086
:10548000616A20468847FEBD72B6FEE70127CAE77B
:1054900064000020064841680968002905D0416879
:1054A000C968C9684968016370470021C943FAE7C0
:1054B0002800002070B5054600F06AFF064E04463D
:1054C0003069844203D200F009F8012000E0002096
:1054D00028602046346170BD64000020F8B5164D88
:1054E00020E0C068C4680668201D00F0B1F9616A58
:1054F00020468847E069012814D1A0698019B0428C
:1055000006D924616060211D286800F0DBF909E0FC
:1055100000200346014600903246204601F0C2F8C2
:10552000002807D0286801680029DAD16968296055
:105530006860F8BD72B6FEE76400002003480068AA
:10554000401C72B600D0FEE7FEE700009400002089
:10555000074C20680168002907D0C0680021006856
:10556000FFF74AFFFFF7EAFEF3E701210020F7E724
:1055700064000020F8B5044600F0C8F9254640351F
:105580000526AE57274624370BE0606A00280AD06C
:10559000384600F0D1FF002801D000F08FFA761EC7
:1055A00076B2002EF1DC0027FF436F7100F0BAF9EC
:1055B00000F0ACF90426AE572046103000900BE006
:1055C000206900280AD0009800F0B6FF002801D01A
:1055D00000F074FA761E76B2002EF1DC2F7100F026
:1055E000A1F9F8BDF8B50546002700F003FB284EE9
:1055F0003068002801D1FFF7A7FDF06805423FD1D0
:10560000002D3DD00835680708D06807400F0821F5
:10561000081A4519680701D072B6FEE7002D2FD091
:10562000706885422CD81A48103001460C6801E099
:1056300020460C466168A94202D221680029F7D1B0
:1056400031688C421CD007682168016060680837A7
:10565000411B102908D96019420701D072B6FEE734
:1056600041606560FFF71AFE61687068401A7060FB
:10567000B268904200D2B060F0680143002003C4D9
:1056800000F08CFF780701D072B6FEE73846F8BD0F
:105690007C00002004490868002803D00868026DD7
:1056A000521C0265086870472800002010B50124CC
:1056B000031F24061C601B1F1960191F024B0B607F
:1056C000143940380A6010BD3D550008F8B507464A
:1056D00006981D4616460C46002805D03846FEF7AB
:1056E00093FE3846FEF70CFF606829468030606004
:1056F000F86A8269204690472E54401CF8BD00008D
:10570000F7B50546C06A82B0036A11460398984708
:105710000646A8681F4F002804D0002000E0401C67
:10572000B042FCDBE86A3246436A28460399984750
:105730000446401C12D1287B800728D53868009089
:1057400009281AD0682818D0202816D02846FEF735
:105750005BFE2846FEF7D4FE00983860287B800761
:1057600001D5601CDED0002C11DDB4420FD00A48F8
:1057700038600020C04305B0F0BD2846FEF7ACFEFF
:105780002846FEF741FE2846FEF7ACFEE4E7204639
:10579000F1E70000CC0000205B42B20638B5456955
:1057A000002400226946E86800F00BFC012801D0C3
:1057B000204638BD641CF4E710B54469E068002851
:1057C00016D100220121C82000F07BFAE0600322FC
:1057D0000021012000F075FA206121890022606813
:1057E000FBF7B2FC2146012214312068FDF722F8B4
:1057F000002010BD10B54069C06800F0E2FB012830
:1058000002D00020C04310BD002010BDF8B544698F
:1058100015460E461F46218901226068FBF794FC5D
:10582000AAB231462068FDF74BF83946206900F0EE
:1058300085FC01282189606805D00022FBF784FCE3
:105840000020C043F8BD0022FBF77EFC0020F8BD1D
:105850004368826801699A60836842685A604A684E
:10586000824201D182684A60002202610868401EBB
:105870000860086870470000044B036018465C30FD
:105880000860FF200130106070470000C009002050
:10589000044B036018465C30086001204002106031
:1058A000704700001C0E00200146083100224160B4
:1058B000D243C16082600161002101607047002114
:1058C0000161704730B50B685A1C02D0024608329D
:1058D00002E0026904E02246546825689D42FAD934
:1058E00053684B6099608A60516008610168491C87
:1058F000016030BD42684A6093688B60936859606C
:10590000916008610168491C0160704772B60448E3
:105910000168491C0160BFF34F8FBFF36F8F704761
:105920009400002005490868002804D0401E086043
:1059300000D162B6704772B6FEE700009400002006
:1059400070B500281AD004460D4D083C6068E9681F
:10595000084201D172B6FEE72268002A01D072B671
:10596000FEE78843606000F045F9606869684018A8
:1059700068602046FFF792FC00F010FE70BD00004A
:105980007C0000200120044900074860BFF34F8FCE
:10599000BFF36F8F7047000000ED00E010B5074BBC
:1059A0000022D4001C59002C03D0521C082AF8D322
:1059B00010BDD2009950D118486010BDA40300203A
:1059C00070B515460E460446FFF7A0FF204640304E
:1059D000042282560021521C00D1017105228256F8
:1059E000521C00D14171FFF79DFFA06B002805D12B
:1059F00020462A463146243000F078F82046FFF74A
:105A0000B9FD70BD10B502000FD00948806B0028A9
:105A100001D072B6FEE700F0EDF800211046FFF766
:105A20007DFA00F0BBFD002801D1FFF7ABFF10BDF0
:105A30002800002070B50546FFF768FF194C002DBF
:105A400000D12568281DFFF703FFA86A002803D0AE
:105A500028461830FFF7FCFEE06A401CE062206830
:105A6000854207D1291D1048FFF744FFE068401C1C
:105A7000E06007E02069401E20612846FFF751FBE7
:105A8000FFF708FDFFF74EFFE069002809D0206806
:105A9000854206D1A06B002801D072B6FEE7FFF761
:105AA00071FF70BD280000208008002002498A6A2A
:105AB00002604969416070472800002001490120C7
:105AC000486270472800002010B50C46002809D015
:105AD000054909681831FFF7F5FE01212046FFF757
